:400000000080002011000000510300005103000008B5044B1A6803F53F5302331A6000F09FF900BFFA46004010B5054C237833B9044B13B10448AFF300800123237010BD37
:400040004081FF1F0000000020190000084B10B51BB108490848AFF300800848036803B910BD074B002BFBD0BDE81040184700BF000000004481FF1F20190000C880FF1FA0
:400080000000000008B5002301E00133DBB2012BFBD9002301E00133DBB2012BFBD9002304E00021054AD1540133DBB2012BF8D90221002000F0A8FA08BD00BF5C81FF1F4B
:4000C00008B501F049FB01F04DFB08BD08B562B6FFF7D8FF012000F09DF94FF4FA7001F051FB002000F096F94FF4FA7001F04AFB022000F021FB0028FAD0FFF7E1FF022043
:4001000000F0C6FA0128E5D10B22024900F0CAFAE0E700BF5C81FF1FFEE700BFF0B40022174611E050F82760F3B226F0FF0608E001EB420511F812406D78A5550132013B78
:40014000DBB2002BF4D10137162FEBD9F0BC7047064B1B78DBB203F00701054A11701B09013213704422034B1A707047CF0100496E5800407658004008B50A46002101F007
:40018000C6FB08BD38B54FF6FF72244B1A80182202331A70062203F27E231A705222A3F580731A701E4B1B78DBB21E4A13704FF4E1621D4B1A8041F25122023B1A800024A6
:4001C00019250CE0194B1B7803F0010343EA440404F003044FF4F07001F022FB013D0DB1032CEFD115B90320FFF796FF104A4FF4807313800723137000230E490B70482032
:400200000231087013700532137002220A4B1A700A4A137843F00103137038BD804000400F010049A14600402242004025420040044000400640004001400040A2430040CA
:4002400008B501F059FB08BD38B572B62E4A137843F00403137000240CE02C4D630019194A0011462A44084691882858FFF784FF0134E4B2062CF0D925494FF09040FFF71C
:400280004DFF244A137843F0020313701032137843F002031370204C237843F040032370A2F58632513A137843F01003137008221A491B48FFF7C4FF0A221A491A48FFF7E8
:4002C000BFFF082219491A48FFF7BAFF082219491948FFF7B5FF082218491948FFF7B0FF184A137843F008031370174D61232B70FFF748FF81232B70FFF72AFF0E22214618
:400300001248FFF79DFF38BDE8460040241900005C00004803500140A043004094010048025100409C010048F0510040A801004812510040B001004822510040B8010048BF
:40034000325100402243004000480040B043004008B501F0A5FA03680C2B00D1FEE7FEE708B5104E104D16E029686B68AC68002204E051F8040B43F8040B0432A242F8D15F
:40038000E868002203E0002143F8041B04328242F9D11035013E002EE6D101F087FAFFF795FEFEE7010000009C1A000008B5104A104B1A60104A136843F4007313600023A8
:4003C0000AE0032B03D80D4A52F8231000E00C490C4A42F8231001332F2BF2D90A4B1A780A4B1A70074A0A4B1A60FFF72DFF08BD0004FA050CED00E014ED00E0000000005B
:40040000510300000080FF1FBC760040C080FF1F08ED00E0044A137803F0FD03400000F0020018431070704720510040F8B501F0FFF90646384A137843F0010313701032F9
:40044000137843F0010313700125344B1D700227943B1F7002F5E2521B32137803F07F031370002001F0A4F92D4C237803F0F90323702C4A137803F0DF03137023782B43DD
:400480002370284601F094F9282001F091F9264B1A7802F07F021A701A7802F0BF021A7023783B432370384601F082F9237843F00403237000241D4B1C7001331C703046DF
:4004C00001F0BAF90721172001F090F91849172001F078F90721182001F088F91549182001F070F90721204601F080F91249204601F068F90721284601F078F90F492846FA
:4005000001F060F907210C2001F070F90C490C2001F058F9F8BD00BFA54300409D6000409443004012600040F851004084600040310C0000590A0000CD0B0000FD0B000031
:40054000C90E000010B5002304E00124214AD4542344DBB2002BF8D01F4B187000231F4A13701F4A13701F4A13701F4A13701F4A13701F4A13701F4A13701F4B4FF4000201
:400580001A604FF080721A6001221A6002221A6011B1012906D00BE0184A137803F0FE0313700AE0154A137843F00103137004E0124A137843F0010313700322104B1A70AD
:4005C0008022203B1A70012001F02AF904220D4B1A7010BDFC81FF1F6E81FF1F6481FF1F7581FF1F7C81FF1F6581FF1F6F81FF1F8D81FF1F6681FF1F00E100E009600040E3
:40060000286000401260004038B504460D46064B1B7823B9FFF70AFF0122034B1A7029462046FFF78FFF38BD5E81FF1F002304E001210E4AD1540B44DBB2002BF8D0002319
:400640000B4A13700B4A13700B4A13700B4A13700B4A13700B4A13700B4A137003220B4B1A708022203B1A70704700BFFC81FF1F6481FF1F7581FF1F7C81FF1F6581FF1FBF
:400680006F81FF1F8D81FF1F6681FF1F2860004000EB40008300024A13445878704700BF9081FF1F431EDBB2072B3CD8F0B4074600EB4004A3001C4C2344DB889BB2C3F53F
:4006C00000739A4208D900EB400293002344DA8892B2C2F5007292B200EB4004A300124C2344DB7843EA1223104D04012E192B55D3B2737039B909E0CE5C3D010C4C66555D
:4007000001339BB200E000239A42F5D8420002449300054A134400225A705A79D2B20001044B1A54F0BC70479081FF1FFC5F004078600040FE5F0040431EDBB2072B06D8EA
:400740000001044B185C00F01000C0B270470020704700BFFE5F00401D4B19781D4A13889BB20B449BB2138000220FE01A494B681B78DBB2194883544B6801334B6001329E
:40078000D2B20B889BB2013B9BB20B80124B1B889BB20BB1072AE9D90D4B1B78DBB2082B00D05AB10E490B7883F080030B700F210C4B197002210C4B197004E00223094986
:4007C0000B7009490B70094B1A70014B1A7070476681FF1F7A81FF1F8081FF1F006000407081FF1F6D81FF1F6481FF1F8C81FF1F0222074B1A708022064B1A700F22064B21
:400800001A700023054A1370054A1370012070476481FF1F7081FF1F6D81FF1F6681FF1F8C81FF1F08B5FFF797FF08BD10B4194B197801F00F010239C9B2174A13889BB27A
:400840000B449BB21380002011E0144A5468144B1B5CDBB223705368013353600130C0B20139C9B213889BB2013B9BB213800B4B1B889BB20BB10029E7D10A4B19700A4A15
:40088000137883F0800313700B22084B1A7010BC704700BF296000407A81FF1F8081FF1F006000408C81FF1F7081FF1F6D81FF1F0623064A1370064A13708022054B1A70B6
:4008C0000022054B1A700120704700BF6481FF1F6D81FF1F7081FF1F8C81FF1F064B9B6843B1054B9A6810709A6804490988518000229A60704700BF8081FF1F7A81FF1F87
:4009000008B5134B1A78D2B21A701B78DBB213F0800F02D00F4A137008BD0220FFF7DEFF0D4B1B7803F06003202B05D0402B06D043B900F071FD06E000F082FF03E000F0BC
:40094000FFFE00E0002010B90322024B1A7008BD286000406D81FF1F0060004008B5094B1978094A13889BB20B449BB213800022064B1A700120FFF7B1FF0322044B1A70AE
:4009800008BD00BF6681FF1F7A81FF1F6481FF1F6D81FF1F08B50B4B1B78DBB2042B06D0062B07D0022B0BD1FFF7D8FF08BDFFF73DFF08BD0320FFF791FF0322024B1A700F
:4009C00008BD00BF6481FF1F6D81FF1F08B50022044B1A700120FFF781FF0322024B1A7008BD00BF6481FF1F6D81FF1F08B50B4B1B7813F0FF0F07D0084A137843F0800365
:400A000007490B70002313700022064B1A700120FFF764FF0322044B1A7008BD6F81FF1F086000406481FF1F6D81FF1F08B5094B1B78DBB2042B06D0062B07D0022B07D103
:400A4000FFF7F0FE08BDFFF7C1FF08BDFFF7CEFF08BD00BF6481FF1F08B5284B1B78DBB213F0100F48D013F0800F0CD003F00F03012B16D1FFF744FF214B1B7813F0800F2E
:400A800011D1012312E013F0400F03D0FFF7CEFF01230BE013F0200F07D0FFF77BFF012304E0002302E0002300E0002323B3134B1B7813F0800F1FD1124B1B78124A12787C
:400AC0001343124A13701278D2B2934214D10C4B1B78DBB2094A127812F0800F07D1084B1B78DBB2054A1370137803F00F03044A1278D2B29342EAD108BD00BF286000402F
:400B00006D81FF1F7081FF1F8C81FF1F296000400022064B1A80064B9B682BB1044A916800230B7092685380704700BF7A81FF1F8081FF1F08B50F4B1B889BB213B9FFF740
:400B400057FE15E002220C4B1A7000220B4B1A70FFF7DEFF0A4AD179937943EA0123054A128892B2934201D2024A1380FFF7F4FD012008BD8081FF1F6481FF1F7081FF1FA4
:400B80000060004008B504220B4B1A7080220B4B1A70FFF7BDFF0A4AD179937943EA0123084A128892B2934201D2064A13800B22054B1A70012008BD6481FF1F7081FF1FE9
:400BC000006000408081FF1F6D81FF1F0122094B1A700F3B9B7C084B1B7B03F00303934204D0054AD37B83F08003D3730122024B5A7370470B6000409081FF1F02220A4B1D
:400C00001A700F3B93F82230084B1B7E03F00303012B04D0054AD37E83F08003D3760122024B5A76704700BF0B6000409081FF1F08B5FFF7FBFC08BD08B50C4B1878013863
:400C4000C0B200F097F90A4B1B79DBB29A1C00EBC20042680749CB5C02EBC3035B68596A0B78054A1380516008BD00BF7C81FF1F006000406C81FF1F8081FF1F08B50E4BBA
:400C800018780138C0B200F075F90C4B1B79DBB29A1C00EBC20042680949CB5C02EBC3035B68DB69597813F8022B42EA012205490A804B6008BD00BF7C81FF1F00600040C9
:400CC0006C81FF1F8081FF1F10B50022194B1A80194B18780138C0B200F04CF9174AD3781279D2B2911C00EBC10041680ABBDBB21348825C01EBC20149685A1ED2B2022A41
:400D000017D803F10053013B01EBC3000B4A9278D2B211F833309A420BD8406802EB4202910042185468034B5C60415A198092689A6010BD8081FF1F7C81FF1F006000402B
:400D40006C81FF1F08B55B4B1A79D2B21B7813F0800F4DD0574B5B78013B052B00F28D80DFE803F0212B3B8B8B03524BDB78DBB2212B09D1FFF760FF4F4B1B889BB2002BC5
:400D80007DD0FFF7D7FE08BD4A4BDB78DBB2222B77D1FFF773FF484B1B889BB2002B72D0FFF7C8FE08BDFFF78FFF434B1B889BB2002B6AD0FFF7BEFE08BD002A67D13D4BAB
:400DC0009B7813F0FF0F64D13B4901230B803B4B1A444A60FFF7AEFE08BD002A5BD1364901230B80364B1A444A60FFF7A3FE08BD304B5B78DBB20A2B0DD00B2B2FD0092BB3
:400E00004BD1FFF761FF2C4B1B889BB2002B46D0FFF7B8FE08BD002A43D1264B9B7813F0FF0F40D1234BDB78DBB224498B54895CC9B2244B9B5CDBB2994203D20021214B19
:400E4000995409E01F4B9B5CDBB2012B04D91B4B9B5CDBB21B498B54FFF72AFD08BD22BB144B9B78DBB2012B21D8124B9B78DBB213498B54FFF71CFD08BD002008BD002084
:400E800008BD002008BD002008BD002008BD002008BD002008BD002008BD002008BD002008BD002008BD002008BD002008BD002008BD00BF006000408081FF1F0082FF1F93
:400EC000FC81FF1F0482FF1F08B500F051FC08BD10B401233EE019461A010C242148845403EB4300820020480244527912F0FF0F13D003EB430082001B480244127912F0FB
:400F0000800F04D01801194A024494700AE01801164A02440820907004E01801134A0244802090704800084482000F480244D488E4B208010B4901448C71D088C0F3072001
:400F4000C871D088C0B20871D288C2F307224A710133DBB2082BBED9FF22054B1A7010BC704700BF706000409081FF1FFC5F00400A600040074B1A78074B03EBC2035B680A
:400F80001A7C824204D9C0001030184440687047002070476E81FF1F50190000F8B5404B1B7813F0FF0F79D03D4B18780138C0B2FFF7E0FF047AC2683A4B1878C0B20023E3
:400FC0006AE01178884264D13749095CC9B25578A9425ED1917801F07F01D67806F00306DFF8C8E04D000D44AF000EEB07054FF0000C85F803C092F802C085F804C092F89E
:4010000003C00EF807C097882F8192F90250002D0DDA012E01D1072700E00D274E000E44B500224E35446F7101266E700CE0012E01D1052700E009274E000E44B5001B4E13
:4010400035446F7100266E70DFF868E00F010EEB07060125B57001FA05F529448D00134929440D89C5F307250EF807500D89EDB27570CE88F6B20E4D3D44AE71CE88C6F3E2
:401080000726EE71CE88F6B22E71C988C1F30721697108320133DBB2A34292D3F8BD00BF7C81FF1F6581FF1F6C81FF1F9081FF1F70600040FC5F0040034B1A78034B03EB27
:4010C000C2035868704700BF6E81FF1F5019000008B5084B18780138C0B2FFF74BFF30B142681279023200EBC203586808BD002008BD00BF7C81FF1F2DE9F041002310E05C
:40110000684D5900CA189600AC190022AA55A270E2702281A272627034462C4462710133DBB2082BECD940B90AE000225E49CA545E49CA540133DBB200E00023002BF4D09E
:401140005B4B1B7813F0FF0F00F0A980584B18780138C0B2FFF70EFF4368DB7913F0400F05D0544A137843F00103137004E0514A137803F0FE031370057A012464E0C16890
:4011800000235DE08A7802F07F02944255D1264604EB4407BA00434F3A44128992B28F88BA4207D204EB440E4FEA8E02DFF8F4E0724417810A783C4FBA5CD2B24F78BA42B6
:4011C0003BD191F802C0DFF8DCE07200324497000EEB070282F804C0CA780EF80720CA7802F0030291F90270002F13DA012A02D14FF0070801E04FF00D08DFF8A8E0720034
:4012000002EB060C4FEA8C07774487F8058001267E7012E0012A02D14FF0050801E04FF00908DFF880E0720002EB060C4FEA8C07774487F8058000267E7008310133DBB261
:40124000AB429FD30134E4B2082C98D9C06800220CE0837803F07F0310F8084B03EB43039900104B19448C720132D2B2AA42F0D3FFF72EFF104B1860002101230BE0094D39
:401280005A00D01884002C44E180228992B2114489B20133DBB2082BF1D9FFF719FEBDE8F08100BF9081FF1F6C81FF1F7481FF1F7C81FF1F8D81FF1F6881FF1F08B5154BC0
:4012C0001B7903F07F035A1ED2B2072A20D8590019448A0010490A44917841F0010191700021D170517841F002015170127912F0800F05D01B01094A1A448D23937004E027
:401300001B01064A1A4489239370FFF7D1FA08BD002008BD006000409081FF1FFC5F0040274B1B7903F07F035A1ED2B2072A44D810B5590019448A0022490A44917801F0E3
:40134000FE0191700021D1701F4C1801215C01F07F012154517801F0FD015170127912F0800F13D003EB43018A0016490A445278D2B2012A04D1224602440C23937019E01C
:401380001B01114A1A440D23937013E003EB43018A000C490A445278D2B2012A05D11B01094A1A440823937004E01B01064A1A4409239370FFF77CFA10BD0020704700BFDD
:4013C000006000409081FF1FFC5F004010B50E4B1C79E4B20D4B18780138C0B2FFF7CAFD43681B799C4201D9012C0AD8084A135DDBB208490B55044B9B78DBB2135501206C
:4014000010BD002010BD00BF006000407C81FF1F6C81FF1F7481FF1F10B59B4B1B78DBB200219A4A118013F0800F00F09C80964A5278D2B20A2A00F25F81DFE812F0580006
:401440005D015D015D015D015D010B005D0181005D0189008C4BDB78DBB2012B09D1FFF72BFE4268894B5A6012221A80FFF762FB10BD854BDB78DBB2022B13D1824B987825
:40148000FFF778FD002800F0398142687F4B5A605A68D1785A68927842EA01221A80FFF749FB10BD784BDB78DBB2032B05D01BE00A7811440133DBB201E000237449724A44
:4014C0009278D2B2934203D20A7812F0FF0FEFD10B7813F0FF0F00F013810B786B4A13805160FFF727FB10BD00F0AAF910BD13F0030317D0022B40F0058164490B80624BD1
:401500001B7903F07F0303EB43039A00614B1A449278D2B2604B1A7000225A704B60FFF709FB10BD594902230B805C4B1A78D2B2594B1A7000225A704B60FFF7FBFA10BD1D
:40154000524B01221A80564A5A60FFF7F3FA10BD4E4A012313804C4B1B7952490B445360FFF7E8FA10BD484A5278013A0A2A00F2CB80DFE812F04C00C9007900C9000B0018
:40158000C900C900C9001300C90030003E4B9B78DBB2454A1370FFF78BF910BD3A4B9B7803F0FF041BB1601EC0B2FFF7E3FC04B110B9002C40F0AA80394B1B78DBB29C429D
:4015C00006D0374B1C700120384B1870FFF794FDFFF76EF910BDFFF7F9FE002800F09880294A1379DBB21279D2B231490A70314AD25CD2B22B49CB5CDBB29A4204D0012256
:401600002A4B1A70FFF7CAFCFFF752F910BD03F00303012B17D04BB1022B7BD11A4B9B7813F0FF0F78D1FFF77BFE10BD164B9B78DBB2012B72D1194A137803F0FD0313707E
:40164000FFF736F910BD104B1B7913F0FF0F67D10D4B98781B79DBB21749CA5C22EA0002CA54FFF725F910BD03F00303012B32D023B3022B56D1044B9B7813F0FF0F53D13C
:40168000FFF71CFE10BD00BF006000408081FF1F141A00009081FF1F6081FF1F8D81FF1F7C81FF1F6C81FF1F6F81FF1F7581FF1F6581FF1F7481FF1F7881FF1F1D4B9B7856
:4016C000DBB2012B32D11C4A137843F002031370FFF7EEF810BD174B1B7913F0FF0F27D1144B98781B79DBB21449CA5C22EA0002CA54FFF7DDF810BD002010BD002010BD29
:40170000002010BD002010BD002010BD002010BD002010BD002010BD002010BD002010BD002010BD002010BD002010BD002010BD002010BD006000408D81FF1F7881FF1FBD
:40174000044B1B7813F0800F01D0024B5B780020704700BF00600040014B1878704700BF65640040014B1878704700BF66640040024B1878C0F38010704700BF8F4500406D
:4017800001BE704710B5044605E0084B186800F047F8A4F50044B4F5004FF6D8034B586800FB04F000F03CF810BD00BFCC80FF1F08B5034B1B7A00FB03F000F031F808BD97
:4017C000CC80FF1F70B504460E46074B1D681F2802D90020FFF7D4FF04F01F04103455F8240045F8246070BD08ED00E038B504460D46072902D90020FFF7C2FF1F2C02D9B9
:401800000020FFF7BDFF04F01F0000F1604000F564406D01EDB2057038BD00BF000000000230800803D000BF01380046FCD17047EFF3108072B6704780F31088704700BF42
:4018400008B5144B1B7803F00303012B02D0022B04D00FE00F4B1B79DBB20CE00D4B1B7903F07F0303EB43039A000B4B1A44937ADBB200E00023012B07D8084A1268D35CE5
:40188000032B04D1FFF75EFA08BD002008BD002008BD00BF006000409081FF1F6881FF1F014B1868704700BF3C81FF1F0E4B70B51E460E4C0025E41AA410A54204D056F87A
:4018C000253098470135F8E700F0D6F8084B094C1E46E41AA4100025A54204D056F8253098470135F8E770BD841A0000841A0000841A00008C1A000010B5431E0A449142B8
:4019000004D011F8014B03F8014FF8E710BD03460244934202D003F8011BFAE77047000000000000405100403000C051004010000000014000100014014000080040014011
:40194000000A004C014000020050014020000000010000005819000001000000641A00000000000000000000010000007019000001000000381A00000200000094190000A0
:4019800001000000A41900000000000090190000030000000000810210000300000002030200030001000000AC19000000000000E019000000000000D41900000000000071
:4019C0000000000001000000EC190000010000004A1A0000030000000882FF1F1082FF1F030000001482FF1F0C82FF1F210005010904A10105091901290B150025017501DB
:401A0000950B810275089502910275089502C00000000000040309041E033600310032005F0043006F006E00740072006F006C006C00650072000000090229000101008001
:401A400019090400000203000000092111010001222100070581021000000705020302000A0000001201000200000008B40451800000000000014300F8B500BFF8BC08BC31
:401A80009E4670474D000000AD030000F8B500BFF8BC08BC9E46704729000000B01A0000C880FF1F78000000D800000000000000000000000000E02EC05D00001800000023
:401AC00000366E010000000000000000000000000000000000000000000000000000000000000000761A0000000000000000000000000000000000000000000000000000B1
:401B0000000000000000000000000000000000000000000000000000000000000000000000000000DC80FF1F0000000000000000000000000000000000000000000000002B
:401B40000000000000000000000000000000000000000000000000000000000000000000000000000000000000000000000000000000000000000000000000000000000065
:401B80000000000000000000000000000000000000000000000000000000000000000000000000000000000000000000000000000000000000000000000000000000000025
:401BC00000000000000000000000000000000000000000000000000000000000000000000000000000000000000000000000000000000000000000000000000000000000E5
:401C000000000000000000000000000000000000000000000000000000000000000000000000000000000000000000000000000000000000000000000000000000000000A4
:020000040003F7
:0200000480007A
:40000000014500400152004005030140120401401E0501400E06014016070140010D01400415014004170140011901400340014012410140094201400143014001450140E0
:4000400001460140044701400448014009490140014C014002500140015101407E027C40824083018902E080E6021201340158045F01820486028F0192089E01B008B202FC
:40008000B404B601B701D804D904DB04DF01050206200A800D020F0119201D801F1527023F405DA45F0267AA80088A019280934199029A20A102AF40B502B620C030C298EF
:4000C000CE10D6F0D8F0E480EC501E012208260227012A0430023201330134083604580459045B045F010E01141815011C601E081F4027202F105C405E085F2092019780A3
:400100009808A410AC10AD80B184C280C470CA40D670E60287109720B010E82097209C10AD01EE02EE0230103640CC300101020207420A100B080E400F088202834084102A
:400140008B049C10A640C0F0C2F0E080E480E640830489019101A304A640AF02B650E420EC40A640871097200B200F409720C20C9601AE41E810EE400A010B200F408740D0
:4001800096019720B310C270E440AF4000010A01000A0000FFFF0000000000004000000000000000C0000000000B0B000000000000020200000000007070000000000000DB
:4001C00000000000000000000000000000000000000000000000000000000000000000000000000000000000000000000000000000000000000000000000000000000000FF
:4002000000000000000000000000000000000000000000000000000000000000000000000000000000000000000000000000000000000000000000000000000000000000BE
:40024000000000000000000000000000000000000000000000000000000000000000000000000000000000000000000000000000000000000000000000000000000000007E
:40028000000000000000000000000000000000000000000000000000000000000000000000000000000000000000000000000000000000000000000000000000000000003E
:0200000490006A
:0400000000004005B7
:0200000490105A
:04000000BC90ACAF55
:0200000490303A
:020000002DF5DC
:0200000490402A
:4000000000000000000000000000000000000000000000000000000000000000000000000000000000000000000000000000000000000000000000000000000000000000C0
:400040000000000000000000000000000000000000000000000000000000000000000000000000000000000000000000000000000000000000000000000000000000000080
:400080000000000000000000000000000000000000000000000000000000000000000000000000000000000000000000000000000000000000000000000000000000000040
:4000C0000000000000000000000000000000000000000000000000000000000000000000000000000000000000000000000000000000000000000000000000000000000000
:0200000490501A
:0C00000000012E16106900012E203E5E4B
:00000001FF