:400000000080002011000000950300009503000008B5044B1A6803F53F5302331A6000F0C1F900BFFA46004010B5054C237833B9044B13B10448AFF300800123237010BD8D
:400040004881FF1F00000000101A0000084B10B51BB108490848AFF300800848036803B910BD074B002BFBD0BDE81040184700BF000000004C81FF1F101A0000C880FF1FAE
:400080000000000008B5002304E00021104AD1540133DBB2012BF8D9002305E00C4A1A44002111710133DBB2012BF7D962B60221002000F0CBFA00F00DFB0028FBD00222E3
:4000C0000349012000F02AFB022000F071FB08BD6481FF1F10B501F0B9FB034C207001F0BBFB607010BD00BF6481FF1F38B500240DE0012000F0B0F9064D286801F0BCFBA6
:40010000002000F0A9F9286801F0B6FB0134092CEFDD38BDCC80FF1F08B5FFF7B3FFFFF7E5FF012000F082FB0028FAD0FFF7D2FF012000F0D5FA012803D10222094900F07D
:40014000EDFA022000F0CCFA0128EAD1022000F0D1FAC2B20449022000F040FB022000F027FBDEE76481FF1F6881FF1FFEE700BFF0B40022174611E050F82760F3B226F0AC
:40018000FF0608E001EB420511F812406D78A5550132013BDBB2002BF4D10137152FEBD9F0BC7047064B1B78DBB203F00701054A11701B09013213704422034B1A7070474B
:4001C000CF0100496E5800407658004008B50A46002101F014FC08BD38B54FF6FF72244B1A80182202331A70062203F27E231A705222A3F580731A701E4B1B78DBB21E4A77
:4002000013704FF4E1621D4B1A8041F25122023B1A80002419250CE0194B1B7803F0010343EA440404F003044FF4F07001F070FB013D0DB1032CEFD115B90320FFF796FF24
:40024000104A4FF4807313800723137000230E490B7048200231087013700532137002220A4B1A700A4A137843F00103137038BD804000400F010049A146004022420040B4
:4002800025420040044000400640004001400040A243004008B501F0A7FB08BD38B572B62C4A137843F00403137000240CE02A4D630019194A0011462A44084691882858ED
:4002C000FFF784FF0134E4B2072CF0D923494FF09040FFF74DFF224A137843F0020313701032137843F0020313701E4C237843F040032370A2F58632513A137843F010030E
:4003000013700A2218491948FFF7C4FF082218491848FFF7BFFF082217491848FFF7BAFF082217491748FFF7B5FF174A137843F008031370154D61232B70FFF74DFF8123B4
:400340002B70FFF72FFF0E2221461148FFF7A2FF38BD00BFE8460040141A00005800004803500140A043004084010048F05100409001004812510040980100482251004032
:40038000A0010048325100402243004000480040B043004008B501F0FBFA03680C2B00D1FEE7FEE708B5104E104D16E029686B68AC68002204E051F8040B43F8040B04328D
:4003C000A242F8D1E868002203E0002143F8041B04328242F9D11035013E002EE6D101F0DDFAFFF799FEFEE701000000881B000008B5104A104B1A60104A136843F400730A
:40040000136000230AE0032B03D80D4A52F8231000E00C490C4A42F8231001332F2BF2D90A4B1A780A4B1A70074A0A4B1A60FFF735FF08BD0004FA050CED00E014ED00E07C
:4004400000000000950300000080FF1FBC760040C080FF1F08ED00E0044A137803F0FD03400000F0020018431070704720510040F8B501F055FA0646384A137843F00103E3
:4004800013701032137843F0010313700125344B1D700227943B1F7002F5E2521B32137803F07F031370002001F0FCF92D4C237803F0F90323702C4A137803F0DF03137089
:4004C00023782B432370284601F0ECF9282001F0E9F9264B1A7802F07F021A701A7802F0BF021A7023783B432370384601F0DAF9237843F00403237000241D4B1C70013390
:400500001C70304601F010FA0721172001F0E8F91849172001F0D0F90721182001F0E0F91549182001F0C8F90721204601F0D8F91249204601F0C0F90721284601F0D0F9BE
:400540000F49284601F0B8F907210C2001F0C8F90C490C2001F0B0F9F8BD00BFA54300409D6000409443004012600040F851004084600040250D00004D0B0000C10C00004C
:40058000F10C0000BD0F000010B5002304E00124214AD4542344DBB2002BF8D01F4B187000231F4A13701F4A13701F4A13701F4A13701F4A13701F4A13701F4A13701F4B14
:4005C0004FF400021A604FF080721A6001221A6002221A6011B1012906D00BE0184A137803F0FE0313700AE0154A137843F00103137004E0124A137843F00103137003220D
:40060000104B1A708022203B1A70012001F080F904220D4B1A7010BD0882FF1F7A81FF1F7081FF1F8181FF1F8881FF1F7181FF1F7B81FF1F9981FF1F7281FF1F00E100E0A3
:4006400009600040286000401260004038B504460D46064B1B7823B9FFF70AFF0122034B1A7029462046FFF78FFF38BD6A81FF1F002304E001210E4AD1540B44DBB2002B0F
:40068000F8D000230B4A13700B4A13700B4A13700B4A13700B4A13700B4A13700B4A137003220B4B1A708022203B1A70704700BF0882FF1F7081FF1F8181FF1F8881FF1F67
:4006C0007181FF1F7B81FF1F9981FF1F7281FF1F28600040014B1878704700BF8881FF1F00EB40008300024A13445878704700BF9C81FF1F431EDBB2072B0BD8064B00011F
:400700001A18185C00F00F00537843EA0020023880B2704700207047FC5F0040431EDBB2072B3CD8F0B4074600EB4004A3001C4C2344DB889BB2C3F500739A4208D900EB1E
:40074000400293002344DA8892B2C2F5007292B200EB4004A300124C2344DB7843EA1223104D04012E192B55D3B2737039B909E0CE5C3D010C4C665501339BB200E0002373
:400780009A42F5D8420002449300054A134400225A705A79D2B20001044B1A54F0BC70479C81FF1FFC5F004078600040FE5F0040431EDBB2072B0BD8420002449300054A73
:4007C000134400225A705A79D2B20001024B1A54704700BF9C81FF1FFE5F004070B5D9B1054614460E46C8B1082819D8FFF782FFA04203D22846FFF77DFF0446002305E0B3
:400800002901094A525CF25401339BB2A342F7D32846FFF7CDFF04E0002402E0002400E00024204670BD00BF78600040431EDBB2072B06D80001044B185C00F01000C0B237
:4008400070470020704700BFFE5F00401D4B19781D4A13889BB20B449BB2138000220FE01A494B681B78DBB2194883544B6801334B600132D2B20B889BB2013B9BB20B805B
:40088000124B1B889BB20BB1072AE9D90D4B1B78DBB2082B00D05AB10E490B7883F080030B700F210C4B197002210C4B197004E0022309490B7009490B70094B1A70014B8B
:4008C0001A7070477281FF1F8681FF1F8C81FF1F006000407C81FF1F7981FF1F7081FF1F9881FF1F0222074B1A708022064B1A700F22064B1A700023054A1370054A1370ED
:40090000012070477081FF1F7C81FF1F7981FF1F7281FF1F9881FF1F08B5FFF797FF08BD10B4194B197801F00F010239C9B2174A13889BB20B449BB21380002011E0144AF0
:400940005468144B1B5CDBB223705368013353600130C0B20139C9B213889BB2013B9BB213800B4B1B889BB20BB10029E7D10A4B19700A4A137883F0800313700B22084B2E
:400980001A7010BC704700BF296000408681FF1F8C81FF1F006000409881FF1F7C81FF1F7981FF1F0623064A1370064A13708022054B1A700022054B1A700120704700BF6A
:4009C0007081FF1F7981FF1F7C81FF1F9881FF1F064B9B6843B1054B9A6810709A6804490988518000229A60704700BF8C81FF1F8681FF1F08B5134B1A78D2B21A701B7883
:400A0000DBB213F0800F02D00F4A137008BD0220FFF7DEFF0D4B1B7803F06003202B05D0402B06D043B900F071FD06E000F080FF03E000F0FFFE00E0002010B90322024BD3
:400A40001A7008BD286000407981FF1F0060004008B5094B1978094A13889BB20B449BB213800022064B1A700120FFF7B1FF0322044B1A7008BD00BF7281FF1F8681FF1F1F
:400A80007081FF1F7981FF1F08B50B4B1B78DBB2042B06D0062B07D0022B0BD1FFF7D8FF08BDFFF73DFF08BD0320FFF791FF0322024B1A7008BD00BF7081FF1F7981FF1FED
:400AC00008B50022044B1A700120FFF781FF0322024B1A7008BD00BF7081FF1F7981FF1F08B50B4B1B7813F0FF0F07D0084A137843F0800307490B70002313700022064BFB
:400B00001A700120FFF764FF0322044B1A7008BD7B81FF1F086000407081FF1F7981FF1F08B5094B1B78DBB2042B06D0062B07D0022B07D1FFF7F0FE08BDFFF7C1FF08BD9E
:400B4000FFF7CEFF08BD00BF7081FF1F08B5284B1B78DBB213F0100F48D013F0800F0CD003F00F03012B16D1FFF744FF214B1B7813F0800F11D1012312E013F0400F03D028
:400B8000FFF7CEFF01230BE013F0200F07D0FFF77BFF012304E0002302E0002300E0002323B3134B1B7813F0800F1FD1124B1B78124A12781343124A13701278D2B2934280
:400BC00014D10C4B1B78DBB2094A127812F0800F07D1084B1B78DBB2054A1370137803F00F03044A1278D2B29342EAD108BD00BF286000407981FF1F7C81FF1F9881FF1FDC
:400C0000296000400022064B1A80064B9B682BB1044A916800230B7092685380704700BF8681FF1F8C81FF1F08B50F4B1B889BB213B9FFF757FE15E002220C4B1A700022FC
:400C40000B4B1A70FFF7DEFF0A4AD179937943EA0123054A128892B2934201D2024A1380FFF7F4FD012008BD8C81FF1F7081FF1F7C81FF1F0060004008B504220B4B1A708D
:400C800080220B4B1A70FFF7BDFF0A4AD179937943EA0123084A128892B2934201D2064A13800B22054B1A70012008BD7081FF1F7C81FF1F006000408C81FF1F7981FF1F50
:400CC0000122094B1A700F3B9B7C084B1B7B03F00303934204D0054AD37B83F08003D3730122024B5A7370470B6000409C81FF1F02220A4B1A700F3B93F82230084B1B7E3E
:400D000003F00303012B04D0054AD37E83F08003D3760122024B5A76704700BF0B6000409C81FF1F08B5FFF7A3FC08BD08B50C4B18780138C0B200F097F90A4B1B79DBB2E3
:400D40009A1C00EBC20042680749CB5C02EBC3035B68596A0B78054A1380516008BD00BF8881FF1F006000407881FF1F8C81FF1F08B50E4B18780138C0B200F075F90C4B0D
:400D80001B79DBB29A1C00EBC20042680949CB5C02EBC3035B68DB69597813F8022B42EA012205490A804B6008BD00BF8881FF1F006000407881FF1F8C81FF1F10B5002283
:400DC000194B1A80194B18780138C0B200F04CF9174AD3781279D2B2911C00EBC10041680ABBDBB21348825C01EBC20149685A1ED2B2022A17D803F10053013B01EBC30030
:400E00000B4A9278D2B211F833309A420BD8406802EB4202910042185468034B5C60415A198092689A6010BD8C81FF1F8881FF1F006000407881FF1F08B55B4B1A79D2B2A2
:400E40001B7813F0800F4DD0574B5B78013B052B00F28D80DFE803F0212B3B8B8B03524BDB78DBB2212B09D1FFF760FF4F4B1B889BB2002B7DD0FFF7D7FE08BD4A4BDB7884
:400E8000DBB2222B77D1FFF773FF484B1B889BB2002B72D0FFF7C8FE08BDFFF78FFF434B1B889BB2002B6AD0FFF7BEFE08BD002A67D13D4B9B7813F0FF0F64D13B4901236E
:400EC0000B803B4B1A444A60FFF7AEFE08BD002A5BD1364901230B80364B1A444A60FFF7A3FE08BD304B5B78DBB20A2B0DD00B2B2FD0092B4BD1FFF761FF2C4B1B889BB2DA
:400F0000002B46D0FFF7B8FE08BD002A43D1264B9B7813F0FF0F40D1234BDB78DBB224498B54895CC9B2244B9B5CDBB2994203D20021214B995409E01F4B9B5CDBB2012B01
:400F400004D91B4B9B5CDBB21B498B54FFF72AFD08BD22BB144B9B78DBB2012B21D8124B9B78DBB213498B54FFF71CFD08BD002008BD002008BD002008BD002008BD0020C4
:400F800008BD002008BD002008BD002008BD002008BD002008BD002008BD002008BD002008BD002008BD00BF006000408C81FF1F0C82FF1F0882FF1F1082FF1F08B500F024
:400FC00051FC08BD10B401233EE019461A010C242148845403EB4300820020480244527912F0FF0F13D003EB430082001B480244127912F0800F04D01801194A02449470BD
:401000000AE01801164A02440820907004E01801134A0244802090704800084482000F480244D488E4B208010B4901448C71D088C0F30720C871D088C0B20871D288C2F39E
:4010400007224A710133DBB2082BBED9FF22054B1A7010BC704700BF706000409C81FF1FFC5F00400A600040074B1A78074B03EBC2035B681A7C824204D9C00010301844F5
:4010800040687047002070477A81FF1F441A0000F8B5404B1B7813F0FF0F79D03D4B18780138C0B2FFF7E0FF047AC2683A4B1878C0B200236AE01178884264D13749095CBD
:4010C000C9B25578A9425ED1917801F07F01D67806F00306DFF8C8E04D000D44AF000EEB07054FF0000C85F803C092F802C085F804C092F803C00EF807C097882F8192F96A
:401100000250002D0DDA012E01D1072700E00D274E000E44B500224E35446F7101266E700CE0012E01D1052700E009274E000E44B5001B4E35446F7100266E70DFF868E080
:401140000F010EEB07060125B57001FA05F529448D00134929440D89C5F307250EF807500D89EDB27570CE88F6B20E4D3D44AE71CE88C6F30726EE71CE88F6B22E71C988E3
:40118000C1F30721697108320133DBB2A34292D3F8BD00BF8881FF1F7181FF1F7881FF1F9C81FF1F70600040FC5F0040034B1A78034B03EBC2035868704700BF7A81FF1F5C
:4011C000441A000008B5084B18780138C0B2FFF74BFF30B142681279023200EBC203586808BD002008BD00BF8881FF1F2DE9F041002310E0684D5900CA189600AC190022F5
:40120000AA55A270E2702281A272627034462C4462710133DBB2082BECD940B90AE000225E49CA545E49CA540133DBB200E00023002BF4D05B4B1B7813F0FF0F00F0A980A7
:40124000584B18780138C0B2FFF70EFF4368DB7913F0400F05D0544A137843F00103137004E0514A137803F0FE031370057A012464E0C16800235DE08A7802F07F02944247
:4012800055D1264604EB4407BA00434F3A44128992B28F88BA4207D204EB440E4FEA8E02DFF8F4E0724417810A783C4FBA5CD2B24F78BA423BD191F802C0DFF8DCE0720004
:4012C000324497000EEB070282F804C0CA780EF80720CA7802F0030291F90270002F13DA012A02D14FF0070801E04FF00D08DFF8A8E0720002EB060C4FEA8C07774487F88A
:40130000058001267E7012E0012A02D14FF0050801E04FF00908DFF880E0720002EB060C4FEA8C07774487F8058000267E7008310133DBB2AB429FD30134E4B2082C98D996
:40134000C06800220CE0837803F07F0310F8084B03EB43039900104B19448C720132D2B2AA42F0D3FFF72EFF104B1860002101230BE0094D5A00D01884002C44E1802289C5
:4013800092B2114489B20133DBB2082BF1D9FFF719FEBDE8F08100BF9C81FF1F7881FF1F8081FF1F8881FF1F9981FF1F7481FF1F08B5154B1B7903F07F035A1ED2B2072A83
:4013C00020D8590019448A0010490A44917841F0010191700021D170517841F002015170127912F0800F05D01B01094A1A448D23937004E01B01064A1A4489239370FFF7ED
:40140000D1FA08BD002008BD006000409C81FF1FFC5F0040274B1B7903F07F035A1ED2B2072A44D810B5590019448A0022490A44917801F0FE0191700021D1701F4C18015F
:40144000215C01F07F012154517801F0FD015170127912F0800F13D003EB43018A0016490A445278D2B2012A04D1224602440C23937019E01B01114A1A440D23937013E006
:4014800003EB43018A000C490A445278D2B2012A05D11B01094A1A440823937004E01B01064A1A4409239370FFF77CFA10BD0020704700BF006000409C81FF1FFC5F004061
:4014C00010B50E4B1C79E4B20D4B18780138C0B2FFF7CAFD43681B799C4201D9012C0AD8084A135DDBB208490B55044B9B78DBB21355012010BD002010BD00BF00600040BC
:401500008881FF1F7881FF1F8081FF1F10B59B4B1B78DBB200219A4A118013F0800F00F09C80964A5278D2B20A2A00F25F81DFE812F058005D015D015D015D015D010B0019
:401540005D0181005D0189008C4BDB78DBB2012B09D1FFF72BFE4268894B5A6012221A80FFF762FB10BD854BDB78DBB2022B13D1824B9878FFF778FD002800F0398142681E
:401580007F4B5A605A68D1785A68927842EA01221A80FFF749FB10BD784BDB78DBB2032B05D01BE00A7811440133DBB201E000237449724A9278D2B2934203D20A7812F06E
:4015C000FF0FEFD10B7813F0FF0F00F013810B786B4A13805160FFF727FB10BD00F0A8F910BD13F0030317D0022B40F0058164490B80624B1B7903F07F0303EB43039A00B7
:40160000614B1A449278D2B2604B1A7000225A704B60FFF709FB10BD594902230B805C4B1A78D2B2594B1A7000225A704B60FFF7FBFA10BD524B01221A80564A5A60FFF749
:40164000F3FA10BD4E4A012313804C4B1B7952490B445360FFF7E8FA10BD484A5278013A0A2A00F2CB80DFE812F04C00C9007900C9000B00C900C900C9001300C90030005A
:401680003E4B9B78DBB2454A1370FFF78BF910BD3A4B9B7803F0FF041BB1601EC0B2FFF7E3FC04B110B9002C40F0AA80394B1B78DBB29C4206D0374B1C700120384B1870F3
:4016C000FFF794FDFFF76EF910BDFFF7F9FE002800F09880294A1379DBB21279D2B231490A70314AD25CD2B22B49CB5CDBB29A4204D001222A4B1A70FFF7CAFCFFF752F969
:4017000010BD03F00303012B17D04BB1022B7BD11A4B9B7813F0FF0F78D1FFF77BFE10BD164B9B78DBB2012B72D1194A137803F0FD031370FFF736F910BD104B1B7913F095
:40174000FF0F67D10D4B98781B79DBB21749CA5C22EA0002CA54FFF725F910BD03F00303012B32D023B3022B56D1044B9B7813F0FF0F53D1FFF71CFE10BD00BF00600040E3
:401780008C81FF1FF81A00009C81FF1F6C81FF1F9981FF1F8881FF1F7881FF1F7B81FF1F8181FF1F7181FF1F8081FF1F8481FF1F1D4B9B78DBB2012B32D11C4A137843F049
:4017C00002031370FFF7EEF810BD174B1B7913F0FF0F27D1144B98781B79DBB21449CA5C22EA0002CA54FFF7DDF810BD002010BD002010BD002010BD002010BD002010BD41
:40180000002010BD002010BD002010BD002010BD002010BD002010BD002010BD002010BD002010BD002010BD006000409981FF1F8481FF1F044B1B7813F0800F01D0024BD9
:401840005B780020704700BF00600040014B1878704700BF66650040014B1878704700BF67650040024B1878C0F38010704700BF8F45004001BE704710B5044605E0084B3D
:40188000186800F045F8A4F50044B4F5004FF6D8034B586800FB04F000F03AF810BD00BFD080FF1F08B5034B1B7A00FB03F000F02FF808BDD080FF1F70B504460E46074BD2
:4018C0001D681F2802D90020FFF7D4FF04F01F04103455F8240045F8246070BD08ED00E038B504460D46072902D90020FFF7C2FF1F2C02D90020FFF7BDFF04F01F0000F161
:40190000604000F564406D01EDB2057038BD00BF0230800803D000BF01380046FCD17047EFF3108072B6704780F31088704700BF08B5144B1B7803F00303012B02D0022B44
:4019400004D00FE00F4B1B79DBB20CE00D4B1B7903F07F0303EB43039A000B4B1A44937ADBB200E00023012B07D8084A1268D35C032B04D1FFF760FA08BD002008BD00209A
:4019800008BD00BF006000409C81FF1F7481FF1F014B1868704700BF4081FF1F0E4B70B51E460E4C0025E41AA410A54204D056F8253098470135F8E700F0D4F8084B094CCB
:4019C0001E46E41AA4100025A54204D056F8253098470135F8E770BD701B0000701B0000701B0000781B000010B5431E0A44914204D011F8014B03F8014FF8E710BD034649
:401A00000244934202D003F8011BFAE77047000000000000005100401000405100403000C0510040100000000140001000140140000800400140000A004C014000020050EF
:401A400001402000010000004C1A000001000000501B0000000000000000000001000000641A000001000000241B000002000000881A000001000000981A0000000000001C
:401A8000841A000003000000000081030B000300000002030200030001000000A01A000000000000C81A00000000000000000000000000000000000001000000D41A00005D
:401AC00001000000361B0000030000001882FF1F1482FF1F1D0005010904A10105091901290B150025017501950B8102750595018103C00000000000040309041203540052
:401B0000650061006D0020003600310032001203470075006E002000430061007300650000000000090229000101008019090400000203000000092111010001221D00077A
:401B40000581030B000A0705020302000A0000001201000200000008B40451800000010200014300F8B500BFF8BC08BC9E4670474D000000F1030000F8B500BFF8BC08BC19
:401B80009E46704729000000981B0000C880FF1F80000000D800000000000000460000000000E02EC05D00001800000000366E0100000000000000000000000000000000C2
:401BC00000000000000000000000000000000000621B0000000000000000000000000000000000000000000000000000000000000000000000000000000000000000000068
:401C000000000000000000000000000000000000E080FF1F000000000000000000000000000000000000000000000000000000000000000000000000000000000000000026
:401C40000000000000000000000000000000000000000000000000000000000000000000000000000000000000000000000000000000000000000000000000000000000064
:401C80000000000000000000000000000000000000000000000000000000000000000000000000000000000000000000000000000000000000000000000000000000000024
:401CC00000000000000000000000000000000000000000000000000000000000000000000000000000000000000000000000000000000000000000000000000000000000E4
:401D000000000000000000000000000000000000000000000000000000000000000000000000000000000000000000000000000000000000000000000000000000000000A3
:020000040003F7
:0200000480007A
:400000000145004001520040020501400407014001090140010B01400A1501401E1601402817014002190140034001400241014002420140024301400345014003460140A4
:40004000054701400748014017490140054C014002500140015101407E027C408280E604A101A280A901EE01EE01E6048120871897209D209F08A840B501B708E810EC40D0
:4000800002010E041E08260227012B02300832023302340135013604580459045B045F01820187018A0492029E08B004B208B401B602B701D804D904DB04DF010120028049
:4000C0000480050109010B010C80170819561E081F452302252027202F18384039043B804520460859545C405E085F2265026608670A808085048F01A101A280C09AC289A9
:40010000C420CA60CE02D6FED8F0EE0AE610EE0A33803640CC30A640A780A640A780A640A7800B020F21C20783019303A31008080F409301AB10C20C81048520AE40AF807D
:40014000E020E440EE50000102010408052009040A020E020F1082018601871094099D209E01A504A801B404B601C0F0C2F0E010E4C0E8808F019301AC08AF40E608100121
:400180001A01000A4000000000000000C0000000000B0B0000000000E0E2020000000000FFFF00000000000000000000000000000000000000000000000000000000000042
:4001C00000000000000000000000000000000000000000000000000000000000000000000000000000000000000000000000000000000000000000000000000000000000FF
:4002000000000000000000000000000000000000000000000000000000000000000000000000000000000000000000000000000000000000000000000000000000000000BE
:40024000000000000000000000000000000000000000000000000000000000000000000000000000000000000000000000000000000000000000000000000000000000007E
:40028000000000000000000000000000000000000000000000000000000000000000000000000000000000000000000000000000000000000000000000000000000000003E
:0200000490006A
:0400000000004005B7
:0200000490105A
:04000000BC90ACAF55
:0200000490303A
:020000008797E0
:0200000490402A
:4000000000000000000000000000000000000000000000000000000000000000000000000000000000000000000000000000000000000000000000000000000000000000C0
:400040000000000000000000000000000000000000000000000000000000000000000000000000000000000000000000000000000000000000000000000000000000000080
:400080000000000000000000000000000000000000000000000000000000000000000000000000000000000000000000000000000000000000000000000000000000000040
:4000C0000000000000000000000000000000000000000000000000000000000000000000000000000000000000000000000000000000000000000000000000000000000000
:0200000490501A
:0C00000000012E16106900012E2098004F
:00000001FF